{
  "_format": "hh-sol-artifact-1",
  "contractName": "UniversalTraceability",
  "sourceName": "contracts/UniversalTraceability.sol",
  "abi": [
    {
      "inputs": [],
      "stateMutability": "nonpayable",
      "type": "constructor"
    },
    {
      "inputs": [
        {
          "internalType": "address",
          "name": "owner",
          "type": "address"
        }
      ],
      "name": "OwnableInvalidOwner",
      "type": "error"
    },
    {
      "inputs": [
        {
          "internalType": "address",
          "name": "account",
          "type": "address"
        }
      ],
      "name": "OwnableUnauthorizedAccount",
      "type": "error"
    },
    {
      "anonymous": false,
      "inputs": [
        {
          "indexed": true,
          "internalType": "uint256",
          "name": "productId",
          "type": "uint256"
        },
        {
          "indexed": false,
          "internalType": "string",
          "name": "certificateType",
          "type": "string"
        }
      ],
      "name": "CertificateAdded",
      "type": "event"
    },
    {
      "anonymous": false,
      "inputs": [
        {
          "indexed": true,
          "internalType": "uint256",
          "name": "productId",
          "type": "uint256"
        },
        {
          "indexed": false,
          "internalType": "string",
          "name": "checkpointType",
          "type": "string"
        },
        {
          "indexed": false,
          "internalType": "uint256",
          "name": "timestamp",
          "type": "uint256"
        }
      ],
      "name": "CheckpointAdded",
      "type": "event"
    },
    {
      "anonymous": false,
      "inputs": [
        {
          "indexed": true,
          "internalType": "address",
          "name": "previousOwner",
          "type": "address"
        },
        {
          "indexed": true,
          "internalType": "address",
          "name": "newOwner",
          "type": "address"
        }
      ],
      "name": "OwnershipTransferred",
      "type": "event"
    },
    {
      "anonymous": false,
      "inputs": [
        {
          "indexed": true,
          "internalType": "uint256",
          "name": "productId",
          "type": "uint256"
        },
        {
          "indexed": false,
          "internalType": "string",
          "name": "reason",
          "type": "string"
        }
      ],
      "name": "ProductRecalled",
      "type": "event"
    },
    {
      "anonymous": false,
      "inputs": [
        {
          "indexed": true,
          "internalType": "uint256",
          "name": "productId",
          "type": "uint256"
        },
        {
          "indexed": false,
          "internalType": "string",
          "name": "domain",
          "type": "string"
        },
        {
          "indexed": false,
          "internalType": "address",
          "name": "registeredBy",
          "type": "address"
        }
      ],
      "name": "ProductRegistered",
      "type": "event"
    },
    {
      "anonymous": false,
      "inputs": [
        {
          "indexed": true,
          "internalType": "string",
          "name": "networkId",
          "type": "string"
        },
        {
          "indexed": false,
          "internalType": "string",
          "name": "buyerId",
          "type": "string"
        },
        {
          "indexed": false,
          "internalType": "string",
          "name": "supplierId",
          "type": "string"
        },
        {
          "indexed": false,
          "internalType": "string",
          "name": "role",
          "type": "string"
        }
      ],
      "name": "RelationshipRegistered",
      "type": "event"
    },
    {
      "anonymous": false,
      "inputs": [
        {
          "indexed": true,
          "internalType": "address",
          "name": "user",
          "type": "address"
        },
        {
          "indexed": false,
          "internalType": "bool",
          "name": "isAuthorized",
          "type": "bool"
        }
      ],
      "name": "UserAuthorized",
      "type": "event"
    },
    {
      "inputs": [
        {
          "internalType": "uint256",
          "name": "productId",
          "type": "uint256"
        },
        {
          "internalType": "string",
          "name": "certificateType",
          "type": "string"
        },
        {
          "internalType": "string",
          "name": "issuer",
          "type": "string"
        },
        {
          "internalType": "uint256",
          "name": "expiryDate",
          "type": "uint256"
        },
        {
          "internalType": "string",
          "name": "ipfsHash",
          "type": "string"
        }
      ],
      "name": "addCertificate",
      "outputs": [],
      "stateMutability": "nonpayable",
      "type": "function"
    },
    {
      "inputs": [
        {
          "internalType": "uint256",
          "name": "productId",
          "type": "uint256"
        },
        {
          "internalType": "string",
          "name": "checkpointType",
          "type": "string"
        },
        {
          "internalType": "string",
          "name": "location",
          "type": "string"
        },
        {
          "internalType": "string",
          "name": "dataHash",
          "type": "string"
        }
      ],
      "name": "addCheckpoint",
      "outputs": [],
      "stateMutability": "nonpayable",
      "type": "function"
    },
    {
      "inputs": [
        {
          "internalType": "address",
          "name": "",
          "type": "address"
        }
      ],
      "name": "authorizedUsers",
      "outputs": [
        {
          "internalType": "bool",
          "name": "",
          "type": "bool"
        }
      ],
      "stateMutability": "view",
      "type": "function"
    },
    {
      "inputs": [
        {
          "internalType": "string",
          "name": "networkId",
          "type": "string"
        }
      ],
      "name": "getNetworkRelationships",
      "outputs": [
        {
          "components": [
            {
              "internalType": "string",
              "name": "networkId",
              "type": "string"
            },
            {
              "internalType": "string",
              "name": "buyerId",
              "type": "string"
            },
            {
              "internalType": "string",
              "name": "supplierId",
              "type": "string"
            },
            {
              "internalType": "string",
              "name": "role",
              "type": "string"
            },
            {
              "internalType": "uint256",
              "name": "timestamp",
              "type": "uint256"
            },
            {
              "internalType": "address",
              "name": "registeredBy",
              "type": "address"
            }
          ],
          "internalType": "struct UniversalTraceability.Relationship[]",
          "name": "",
          "type": "tuple[]"
        }
      ],
      "stateMutability": "view",
      "type": "function"
    },
    {
      "inputs": [
        {
          "internalType": "uint256",
          "name": "productId",
          "type": "uint256"
        }
      ],
      "name": "getProductCertificates",
      "outputs": [
        {
          "components": [
            {
              "internalType": "uint256",
              "name": "productId",
              "type": "uint256"
            },
            {
              "internalType": "string",
              "name": "certificateType",
              "type": "string"
            },
            {
              "internalType": "string",
              "name": "issuer",
              "type": "string"
            },
            {
              "internalType": "uint256",
              "name": "issueDate",
              "type": "uint256"
            },
            {
              "internalType": "uint256",
              "name": "expiryDate",
              "type": "uint256"
            },
            {
              "internalType": "string",
              "name": "ipfsHash",
              "type": "string"
            }
          ],
          "internalType": "struct UniversalTraceability.Certificate[]",
          "name": "",
          "type": "tuple[]"
        }
      ],
      "stateMutability": "view",
      "type": "function"
    },
    {
      "inputs": [
        {
          "internalType": "uint256",
          "name": "productId",
          "type": "uint256"
        }
      ],
      "name": "getProductJourney",
      "outputs": [
        {
          "components": [
            {
              "internalType": "uint256",
              "name": "productId",
              "type": "uint256"
            },
            {
              "internalType": "address",
              "name": "addedBy",
              "type": "address"
            },
            {
              "internalType": "string",
              "name": "checkpointType",
              "type": "string"
            },
            {
              "internalType": "string",
              "name": "location",
              "type": "string"
            },
            {
              "internalType": "uint256",
              "name": "timestamp",
              "type": "uint256"
            },
            {
              "internalType": "string",
              "name": "dataHash",
              "type": "string"
            },
            {
              "internalType": "bool",
              "name": "verified",
              "type": "bool"
            }
          ],
          "internalType": "struct UniversalTraceability.Checkpoint[]",
          "name": "",
          "type": "tuple[]"
        }
      ],
      "stateMutability": "view",
      "type": "function"
    },
    {
      "inputs": [
        {
          "internalType": "uint256",
          "name": "productId",
          "type": "uint256"
        },
        {
          "internalType": "string",
          "name": "reason",
          "type": "string"
        }
      ],
      "name": "initiateRecall",
      "outputs": [],
      "stateMutability": "nonpayable",
      "type": "function"
    },
    {
      "inputs": [],
      "name": "owner",
      "outputs": [
        {
          "internalType": "address",
          "name": "",
          "type": "address"
        }
      ],
      "stateMutability": "view",
      "type": "function"
    },
    {
      "inputs": [
        {
          "internalType": "uint256",
          "name": "",
          "type": "uint256"
        }
      ],
      "name": "products",
      "outputs": [
        {
          "internalType": "uint256",
          "name": "id",
          "type": "uint256"
        },
        {
          "internalType": "string",
          "name": "productName",
          "type": "string"
        },
        {
          "internalType": "string",
          "name": "domain",
          "type": "string"
        },
        {
          "internalType": "address",
          "name": "registeredBy",
          "type": "address"
        },
        {
          "internalType": "uint256",
          "name": "timestamp",
          "type": "uint256"
        },
        {
          "internalType": "string",
          "name": "ipfsHash",
          "type": "string"
        },
        {
          "internalType": "bool",
          "name": "isActive",
          "type": "bool"
        },
        {
          "internalType": "bool",
          "name": "recalled",
          "type": "bool"
        }
      ],
      "stateMutability": "view",
      "type": "function"
    },
    {
      "inputs": [
        {
          "internalType": "uint256",
          "name": "",
          "type": "uint256"
        }
      ],
      "name": "recallReason",
      "outputs": [
        {
          "internalType": "string",
          "name": "",
          "type": "string"
        }
      ],
      "stateMutability": "view",
      "type": "function"
    },
    {
      "inputs": [
        {
          "internalType": "string",
          "name": "productName",
          "type": "string"
        },
        {
          "internalType": "string",
          "name": "domain",
          "type": "string"
        },
        {
          "internalType": "string",
          "name": "ipfsHash",
          "type": "string"
        }
      ],
      "name": "registerProduct",
      "outputs": [
        {
          "internalType": "uint256",
          "name": "",
          "type": "uint256"
        }
      ],
      "stateMutability": "nonpayable",
      "type": "function"
    },
    {
      "inputs": [
        {
          "internalType": "string",
          "name": "networkId",
          "type": "string"
        },
        {
          "internalType": "string",
          "name": "buyerId",
          "type": "string"
        },
        {
          "internalType": "string",
          "name": "supplierId",
          "type": "string"
        },
        {
          "internalType": "string",
          "name": "role",
          "type": "string"
        }
      ],
      "name": "registerRelationship",
      "outputs": [],
      "stateMutability": "nonpayable",
      "type": "function"
    },
    {
      "inputs": [],
      "name": "renounceOwnership",
      "outputs": [],
      "stateMutability": "nonpayable",
      "type": "function"
    },
    {
      "inputs": [
        {
          "internalType": "address",
          "name": "user",
          "type": "address"
        },
        {
          "internalType": "bool",
          "name": "isAuthorized",
          "type": "bool"
        }
      ],
      "name": "setAuthorizedUser",
      "outputs": [],
      "stateMutability": "nonpayable",
      "type": "function"
    },
    {
      "inputs": [
        {
          "internalType": "address",
          "name": "newOwner",
          "type": "address"
        }
      ],
      "name": "transferOwnership",
      "outputs": [],
      "stateMutability": "nonpayable",
      "type": "function"
    },
    {
      "inputs": [
        {
          "internalType": "uint256",
          "name": "productId",
          "type": "uint256"
        }
      ],
      "name": "verifyProduct",
      "outputs": [
        {
          "internalType": "bool",
          "name": "",
          "type": "bool"
        },
        {
          "components": [
            {
              "internalType": "uint256",
              "name": "id",
              "type": "uint256"
            },
            {
              "internalType": "string",
              "name": "productName",
              "type": "string"
            },
            {
              "internalType": "string",
              "name": "domain",
              "type": "string"
            },
            {
              "internalType": "address",
              "name": "registeredBy",
              "type": "address"
            },
            {
              "internalType": "uint256",
              "name": "timestamp",
              "type": "uint256"
            },
            {
              "internalType": "string",
              "name": "ipfsHash",
              "type": "string"
            },
            {
              "internalType": "bool",
              "name": "isActive",
              "type": "bool"
            },
            {
              "internalType": "bool",
              "name": "recalled",
              "type": "bool"
            }
          ],
          "internalType": "struct UniversalTraceability.Product",
          "name": "",
          "type": "tuple"
        }
      ],
      "stateMutability": "view",
      "type": "function"
    }
  ],
  "bytecode": "0x608060405234801561001057600080fd5b5033808061003857604051631e4fbdf760e01b81526000600482015260240160405180910390fd5b61004181610048565b5050610098565b600080546001600160a01b038381166001600160a01b0319831681178455604051919092169283917f8be0079c531659141344cd1fd0a4f28419497f9722a3daafe3b4186f6b6457e09190a35050565b61265a80620000a86000396000f3fe608060405234801561001057600080fd5b50600436106101005760003560e01c80638da5cb5b11610097578063bf3a73ac11610066578063bf3a73ac14610257578063c17cde621461026a578063d8305fd41461028a578063f2fde38b146102aa57600080fd5b80638da5cb5b146102035780639a8c75f51461021e578063a249225e14610231578063a7002d321461024457600080fd5b80635399d878116100d35780635399d8781461019f578063715018a6146101b45780637acc0b20146101bc5780638a1faaf4146101e357600080fd5b80631828983a146101055780633406b7181461013d5780634442ebb81461015e578063524e84621461017e575b600080fd5b610128610113366004611c19565b60016020526000908152604090205460ff1681565b60405190151581526020015b60405180910390f35b61015061014b366004611cde565b6102bd565b604051908152602001610134565b61017161016c366004611d66565b61046c565b6040516101349190611dcf565b61019161018c366004611d66565b610506565b604051610134929190611de2565b6101b26101ad366004611ea3565b6107b0565b005b6101b2610bb4565b6101cf6101ca366004611d66565b610bc8565b604051610134989796959493929190611f35565b6101f66101f1366004611d66565b610db5565b6040516101349190611faa565b6000546040516001600160a01b039091168152602001610134565b6101b261022c36600461206d565b610ffb565b6101b261023f3660046120b4565b611099565b6101b26102523660046120f0565b611100565b6101b261026536600461218c565b611482565b61027d6102783660046121dc565b61160c565b6040516101349190612219565b61029d610298366004611d66565b6118e9565b60405161013491906122e6565b6101b26102b8366004611c19565b611b42565b3360009081526001602052604081205460ff16806102f45750336102e96000546001600160a01b031690565b6001600160a01b0316145b6103195760405162461bcd60e51b8152600401610310906123b4565b60405180910390fd5b60016002600082825461032c91906123dc565b90915550506040805161010081018252600254808252602080830188815283850188905233606085015242608085015260a08401879052600160c08501819052600060e0860181905293845260039092529390912082518155925191929190820190610398908261248e565b50604082015160028201906103ad908261248e565b5060608201516003820180546001600160a01b0319166001600160a01b039092169190911790556080820151600482015560a082015160058201906103f2908261248e565b5060c08201516006909101805460e09093015115156101000261ff00199215159290921661ffff19909316929092171790556002546040517fd810998a0248808a33b20218e71759cb2ec1a182b398350ad606d742587c012c90610459908690339061254e565b60405180910390a2506002549392505050565b6007602052600090815260409020805461048590612403565b80601f01602080910402602001604051908101604052809291908181526020018280546104b190612403565b80156104fe5780601f106104d3576101008083540402835291602001916104fe565b820191906000526020600020905b8154815290600101906020018083116104e157829003601f168201915b505050505081565b600061055d60405180610100016040528060008152602001606081526020016060815260200160006001600160a01b0316815260200160008152602001606081526020016000151581526020016000151581525090565b600060036000858152602001908152602001600020604051806101000160405290816000820154815260200160018201805461059890612403565b80601f01602080910402602001604051908101604052809291908181526020018280546105c490612403565b80156106115780601f106105e657610100808354040283529160200191610611565b820191906000526020600020905b8154815290600101906020018083116105f457829003601f168201915b5050505050815260200160028201805461062a90612403565b80601f016020809104026020016040519081016040528092919081815260200182805461065690612403565b80156106a35780601f10610678576101008083540402835291602001916106a3565b820191906000526020600020905b81548152906001019060200180831161068657829003601f168201915b505050918352505060038201546001600160a01b03166020820152600482015460408201526005820180546060909201916106dd90612403565b80601f016020809104026020016040519081016040528092919081815260200182805461070990612403565b80156107565780601f1061072b57610100808354040283529160200191610756565b820191906000526020600020905b81548152906001019060200180831161073957829003601f168201915b50505091835250506006919091015460ff8082161515602084015261010090910416151560409091015280519091506000901580159061079757508160c001515b80156107a557508160e00151155b959194509092505050565b3360009081526001602052604090205460ff16806107e75750336107dc6000546001600160a01b031690565b6001600160a01b0316145b6108035760405162461bcd60e51b8152600401610310906123b4565b600060036000868152602001908152602001600020604051806101000160405290816000820154815260200160018201805461083e90612403565b80601f016020809104026020016040519081016040528092919081815260200182805461086a90612403565b80156108b75780601f1061088c576101008083540402835291602001916108b7565b820191906000526020600020905b81548152906001019060200180831161089a57829003601f168201915b505050505081526020016002820180546108d090612403565b80601f01602080910402602001604051908101604052809291908181526020018280546108fc90612403565b80156109495780601f1061091e57610100808354040283529160200191610949565b820191906000526020600020905b81548152906001019060200180831161092c57829003601f168201915b505050918352505060038201546001600160a01b031660208201526004820154604082015260058201805460609092019161098390612403565b80601f01602080910402602001604051908101604052809291908181526020018280546109af90612403565b80156109fc5780601f106109d1576101008083540402835291602001916109fc565b820191906000526020600020905b8154815290600101906020018083116109df57829003601f168201915b50505091835250506006919091015460ff808216151560208401526101009091041615156040909101528051909150600003610a4a5760405162461bcd60e51b815260040161031090612578565b8060c00151610a8e5760405162461bcd60e51b815260206004820152601060248201526f50726f6475637420696e61637469766560801b6044820152606401610310565b6000858152600460209081526040808320815160e081018352898152338185019081529281018981526060820189905242608083015260a08201889052600160c0830181905283548082018555938752949095208151600790930201918255915192810180546001600160a01b0319166001600160a01b039094169390931790925591516002820190610b21908261248e565b5060608201516003820190610b36908261248e565b506080820151600482015560a08201516005820190610b55908261248e565b5060c091909101516006909101805460ff191691151591909117905560405185907f17ca70ba6a6d5840654a0e30b5302464f378708f01f86defbe6749471cf9ce2d90610ba590879042906125a3565b60405180910390a25050505050565b610bbc611b80565b610bc66000611bad565b565b60036020526000908152604090208054600182018054919291610bea90612403565b80601f0160208091040260200160405190810160405280929190818152602001828054610c1690612403565b8015610c635780601f10610c3857610100808354040283529160200191610c63565b820191906000526020600020905b815481529060010190602001808311610c4657829003601f168201915b505050505090806002018054610c7890612403565b80601f0160208091040260200160405190810160405280929190818152602001828054610ca490612403565b8015610cf15780601f10610cc657610100808354040283529160200191610cf1565b820191906000526020600020905b815481529060010190602001808311610cd457829003601f168201915b505050506003830154600484015460058501805494956001600160a01b039093169491935090610d2090612403565b80601f0160208091040260200160405190810160405280929190818152602001828054610d4c90612403565b8015610d995780601f10610d6e57610100808354040283529160200191610d99565b820191906000526020600020905b815481529060010190602001808311610d7c57829003601f168201915b5050506006909301549192505060ff8082169161010090041688565b606060056000838152602001908152602001600020805480602002602001604051908101604052809291908181526020016000905b82821015610ff057838290600052602060002090600602016040518060c001604052908160008201548152602001600182018054610e2790612403565b80601f0160208091040260200160405190810160405280929190818152602001828054610e5390612403565b8015610ea05780601f10610e7557610100808354040283529160200191610ea0565b820191906000526020600020905b815481529060010190602001808311610e8357829003601f168201915b50505050508152602001600282018054610eb990612403565b80601f0160208091040260200160405190810160405280929190818152602001828054610ee590612403565b8015610f325780601f10610f0757610100808354040283529160200191610f32565b820191906000526020600020905b815481529060010190602001808311610f1557829003601f168201915b505050505081526020016003820154815260200160048201548152602001600582018054610f5f90612403565b80601f0160208091040260200160405190810160405280929190818152602001828054610f8b90612403565b8015610fd85780601f10610fad57610100808354040283529160200191610fd8565b820191906000526020600020905b815481529060010190602001808311610fbb57829003601f168201915b50505050508152505081526020019060010190610dea565b505050509050919050565b611003611b80565b600082815260036020526040812080549091036110325760405162461bcd60e51b815260040161031090612578565b60068101805461ffff1916610100179055600083815260076020526040902061105b838261248e565b50827fcf945375036ee1ff64a8885b9c36844ac503b07ad7b0b3b78d023eb0a4cc623c8360405161108c9190611dcf565b60405180910390a2505050565b6110a1611b80565b6001600160a01b038216600081815260016020908152604091829020805460ff191685151590811790915591519182527f570b956a171c3a77d080bd03f4e6e3d0c536bf680da7603ab537b56e768d76df910160405180910390a25050565b3360009081526001602052604090205460ff168061113757503361112c6000546001600160a01b031690565b6001600160a01b0316145b6111535760405162461bcd60e51b8152600401610310906123b4565b600060036000878152602001908152602001600020604051806101000160405290816000820154815260200160018201805461118e90612403565b80601f01602080910402602001604051908101604052809291908181526020018280546111ba90612403565b80156112075780601f106111dc57610100808354040283529160200191611207565b820191906000526020600020905b8154815290600101906020018083116111ea57829003601f168201915b5050505050815260200160028201805461122090612403565b80601f016020809104026020016040519081016040528092919081815260200182805461124c90612403565b80156112995780601f1061126e57610100808354040283529160200191611299565b820191906000526020600020905b81548152906001019060200180831161127c57829003601f168201915b505050918352505060038201546001600160a01b03166020820152600482015460408201526005820180546060909201916112d390612403565b80601f01602080910402602001604051908101604052809291908181526020018280546112ff90612403565b801561134c5780601f106113215761010080835404028352916020019161134c565b820191906000526020600020905b81548152906001019060200180831161132f57829003601f168201915b50505091835250506006919091015460ff80821615156020840152610100909104161515604090910152805190915060000361139a5760405162461bcd60e51b815260040161031090612578565b6000868152600560209081526040808320815160c0810183528a81528084018a81529281018990524260608201526080810188905260a08101879052815460018181018455928652939094208451600690940201928355905190820190611401908261248e565b5060408201516002820190611416908261248e565b50606082015160038201556080820151600482015560a0820151600582019061143f908261248e565b505050857fb3f7a51d97edfec0a93ec31952a01e523033a70f92f1cfae631a92c02f5306d0866040516114729190611dcf565b60405180910390a2505050505050565b3360009081526001602052604090205460ff16806114b95750336114ae6000546001600160a01b031690565b6001600160a01b0316145b6114d55760405162461bcd60e51b8152600401610310906123b4565b6006846040516114e591906125c5565b90815260408051918290036020908101832060c084018352878452838201879052918301859052606083018490524260808401523360a08401528154600181018355600092835291208251600690920201908190611543908261248e565b5060208201516001820190611558908261248e565b506040820151600282019061156d908261248e565b5060608201516003820190611582908261248e565b506080820151600482015560a090910151600590910180546001600160a01b0319166001600160a01b039092169190911790556040516115c39085906125c5565b60405180910390207fbbf22672e0e1a49961daba1f3217b271b706452ae79dca14a53a63ac151524908484846040516115fe939291906125e1565b60405180910390a250505050565b606060068260405161161e91906125c5565b9081526020016040518091039020805480602002602001604051908101604052809291908181526020016000905b82821015610ff057838290600052602060002090600602016040518060c001604052908160008201805461167f90612403565b80601f01602080910402602001604051908101604052809291908181526020018280546116ab90612403565b80156116f85780601f106116cd576101008083540402835291602001916116f8565b820191906000526020600020905b8154815290600101906020018083116116db57829003601f168201915b5050505050815260200160018201805461171190612403565b80601f016020809104026020016040519081016040528092919081815260200182805461173d90612403565b801561178a5780601f1061175f5761010080835404028352916020019161178a565b820191906000526020600020905b81548152906001019060200180831161176d57829003601f168201915b505050505081526020016002820180546117a390612403565b80601f01602080910402602001604051908101604052809291908181526020018280546117cf90612403565b801561181c5780601f106117f15761010080835404028352916020019161181c565b820191906000526020600020905b8154815290600101906020018083116117ff57829003601f168201915b5050505050815260200160038201805461183590612403565b80601f016020809104026020016040519081016040528092919081815260200182805461186190612403565b80156118ae5780601f10611883576101008083540402835291602001916118ae565b820191906000526020600020905b81548152906001019060200180831161189157829003601f168201915b505050918352505060048201546020808301919091526005909201546001600160a01b0316604090910152908252600192909201910161164c565b606060046000838152602001908152602001600020805480602002602001604051908101604052809291908181526020016000905b82821015610ff05760008481526020908190206040805160e081018252600786029092018054835260018101546001600160a01b0316938301939093526002830180549293929184019161197190612403565b80601f016020809104026020016040519081016040528092919081815260200182805461199d90612403565b80156119ea5780601f106119bf576101008083540402835291602001916119ea565b820191906000526020600020905b8154815290600101906020018083116119cd57829003601f168201915b50505050508152602001600382018054611a0390612403565b80601f0160208091040260200160405190810160405280929190818152602001828054611a2f90612403565b8015611a7c5780601f10611a5157610100808354040283529160200191611a7c565b820191906000526020600020905b815481529060010190602001808311611a5f57829003601f168201915b5050505050815260200160048201548152602001600582018054611a9f90612403565b80601f0160208091040260200160405190810160405280929190818152602001828054611acb90612403565b8015611b185780601f10611aed57610100808354040283529160200191611b18565b820191906000526020600020905b815481529060010190602001808311611afb57829003601f168201915b50505091835250506006919091015460ff161515602091820152908252600192909201910161191e565b611b4a611b80565b6001600160a01b038116611b7457604051631e4fbdf760e01b815260006004820152602401610310565b611b7d81611bad565b50565b6000546001600160a01b03163314610bc65760405163118cdaa760e01b8152336004820152602401610310565b600080546001600160a01b038381166001600160a01b0319831681178455604051919092169283917f8be0079c531659141344cd1fd0a4f28419497f9722a3daafe3b4186f6b6457e09190a35050565b80356001600160a01b0381168114611c1457600080fd5b919050565b600060208284031215611c2b57600080fd5b611c3482611bfd565b9392505050565b634e487b7160e01b600052604160045260246000fd5b600082601f830112611c6257600080fd5b813567ffffffffffffffff80821115611c7d57611c7d611c3b565b604051601f8301601f19908116603f01168101908282118183101715611ca557611ca5611c3b565b81604052838152866020858801011115611cbe57600080fd5b836020870160208301376000602085830101528094505050505092915050565b600080600060608486031215611cf357600080fd5b833567ffffffffffffffff80821115611d0b57600080fd5b611d1787838801611c51565b94506020860135915080821115611d2d57600080fd5b611d3987838801611c51565b93506040860135915080821115611d4f57600080fd5b50611d5c86828701611c51565b9150509250925092565b600060208284031215611d7857600080fd5b5035919050565b60005b83811015611d9a578181015183820152602001611d82565b50506000910152565b60008151808452611dbb816020860160208601611d7f565b601f01601f19169290920160200192915050565b602081526000611c346020830184611da3565b8215158152604060208201528151604082015260006020830151610100806060850152611e13610140850183611da3565b91506040850151603f1980868503016080870152611e318483611da3565b935060608701519150611e4f60a08701836001600160a01b03169052565b608087015160c087015260a08701519150808685030160e087015250611e758382611da3565b92505060c0850151611e8a8286018215159052565b505060e084015180151561012085015250949350505050565b60008060008060808587031215611eb957600080fd5b84359350602085013567ffffffffffffffff80821115611ed857600080fd5b611ee488838901611c51565b94506040870135915080821115611efa57600080fd5b611f0688838901611c51565b93506060870135915080821115611f1c57600080fd5b50611f2987828801611c51565b91505092959194509250565b60006101008a8352806020840152611f4f8184018b611da3565b90508281036040840152611f63818a611da3565b6001600160a01b03891660608501526080840188905283810360a08501529050611f8d8187611da3565b94151560c0840152505090151560e0909101529695505050505050565b600060208083018184528085518083526040925060408601915060408160051b87010184880160005b8381101561205f57603f19898403018552815160c08151855288820151818a87015261200182870182611da3565b91505087820151858203898701526120198282611da3565b606084810151908801526080808501519088015260a09384015187820394880194909452915061204b90508183611da3565b968901969450505090860190600101611fd3565b509098975050505050505050565b6000806040838503121561208057600080fd5b82359150602083013567ffffffffffffffff81111561209e57600080fd5b6120aa85828601611c51565b9150509250929050565b600080604083850312156120c757600080fd5b6120d083611bfd565b9150602083013580151581146120e557600080fd5b809150509250929050565b600080600080600060a0868803121561210857600080fd5b85359450602086013567ffffffffffffffff8082111561212757600080fd5b61213389838a01611c51565b9550604088013591508082111561214957600080fd5b61215589838a01611c51565b945060608801359350608088013591508082111561217257600080fd5b5061217f88828901611c51565b9150509295509295909350565b600080600080608085870312156121a257600080fd5b843567ffffffffffffffff808211156121ba57600080fd5b6121c688838901611c51565b95506020870135915080821115611ed857600080fd5b6000602082840312156121ee57600080fd5b813567ffffffffffffffff81111561220557600080fd5b61221184828501611c51565b949350505050565b600060208083018184528085518083526040925060408601915060408160051b87010184880160005b8381101561205f57603f19898403018552815160c0815181865261226882870182611da3565b915050888201518582038a8701526122808282611da3565b91505087820151858203898701526122988282611da3565b915050606080830151868303828801526122b28382611da3565b6080858101519089015260a0948501516001600160a01b031694909701939093525050509386019390860190600101612242565b600060208083018184528085518083526040925060408601915060408160051b87010184880160005b8381101561205f57888303603f19018552815180518452878101516001600160a01b0316888501528681015160e08886018190529061235082870182611da3565b9150506060808301518683038288015261236a8382611da3565b92505050608080830151818701525060a080830151868303828801526123908382611da3565b60c0948501511515979094019690965250509487019492509086019060010161230f565b6020808252600e908201526d139bdd08185d5d1a1bdc9a5e995960921b604082015260600190565b808201808211156123fd57634e487b7160e01b600052601160045260246000fd5b92915050565b600181811c9082168061241757607f821691505b60208210810361243757634e487b7160e01b600052602260045260246000fd5b50919050565b601f821115612489576000816000526020600020601f850160051c810160208610156124665750805b601f850160051c820191505b8181101561248557828155600101612472565b5050505b505050565b815167ffffffffffffffff8111156124a8576124a8611c3b565b6124bc816124b68454612403565b8461243d565b602080601f8311600181146124f157600084156124d95750858301515b600019600386901b1c1916600185901b178555612485565b600085815260208120601f198616915b8281101561252057888601518255948401946001909101908401612501565b508582101561253e5787850151600019600388901b60f8161c191681555b5050505050600190811b01905550565b6040815260006125616040830185611da3565b905060018060a01b03831660208301529392505050565b602080825260119082015270141c9bd91d58dd081b9bdd08199bdd5b99607a1b604082015260600190565b6040815260006125b66040830185611da3565b90508260208301529392505050565b600082516125d7818460208701611d7f565b9190910192915050565b6060815260006125f46060830186611da3565b82810360208401526126068186611da3565b9050828103604084015261261a8185611da3565b969550505050505056fea2646970667358221220c1254517524503bf100c89d95533ff4cf728f00a8927b156dae49bf3f4093c0364736f6c63430008180033",
  "linkReferences": {},
  "deployedLinkReferences": {}
}