{
  "_format": "hh-sol-artifact-1",
  "contractName": "IoTOracle",
  "sourceName": "contracts/IoTOracle.sol",
  "abi": [
    {
      "inputs": [
        {
          "internalType": "address",
          "name": "initialOwner",
          "type": "address"
        }
      ],
      "stateMutability": "nonpayable",
      "type": "constructor"
    },
    {
      "inputs": [
        {
          "internalType": "address",
          "name": "owner",
          "type": "address"
        }
      ],
      "name": "OwnableInvalidOwner",
      "type": "error"
    },
    {
      "inputs": [
        {
          "internalType": "address",
          "name": "account",
          "type": "address"
        }
      ],
      "name": "OwnableUnauthorizedAccount",
      "type": "error"
    },
    {
      "anonymous": false,
      "inputs": [
        {
          "indexed": true,
          "internalType": "address",
          "name": "node",
          "type": "address"
        },
        {
          "indexed": false,
          "internalType": "bool",
          "name": "isActive",
          "type": "bool"
        }
      ],
      "name": "OracleNodeUpdated",
      "type": "event"
    },
    {
      "anonymous": false,
      "inputs": [
        {
          "indexed": true,
          "internalType": "address",
          "name": "previousOwner",
          "type": "address"
        },
        {
          "indexed": true,
          "internalType": "address",
          "name": "newOwner",
          "type": "address"
        }
      ],
      "name": "OwnershipTransferred",
      "type": "event"
    },
    {
      "anonymous": false,
      "inputs": [
        {
          "indexed": true,
          "internalType": "uint256",
          "name": "productId",
          "type": "uint256"
        },
        {
          "indexed": false,
          "internalType": "string",
          "name": "sensorId",
          "type": "string"
        },
        {
          "indexed": false,
          "internalType": "int256",
          "name": "temperature",
          "type": "int256"
        },
        {
          "indexed": false,
          "internalType": "int256",
          "name": "humidity",
          "type": "int256"
        }
      ],
      "name": "SensorDataPublished",
      "type": "event"
    },
    {
      "inputs": [
        {
          "internalType": "uint256",
          "name": "productId",
          "type": "uint256"
        }
      ],
      "name": "getProductSensorData",
      "outputs": [
        {
          "components": [
            {
              "internalType": "string",
              "name": "sensorId",
              "type": "string"
            },
            {
              "internalType": "uint256",
              "name": "productId",
              "type": "uint256"
            },
            {
              "internalType": "int256",
              "name": "temperature",
              "type": "int256"
            },
            {
              "internalType": "int256",
              "name": "humidity",
              "type": "int256"
            },
            {
              "internalType": "uint256",
              "name": "timestamp",
              "type": "uint256"
            },
            {
              "internalType": "string",
              "name": "dataHash",
              "type": "string"
            }
          ],
          "internalType": "struct IoTOracle.SensorRecord[]",
          "name": "",
          "type": "tuple[]"
        }
      ],
      "stateMutability": "view",
      "type": "function"
    },
    {
      "inputs": [
        {
          "internalType": "address",
          "name": "",
          "type": "address"
        }
      ],
      "name": "oracleNodes",
      "outputs": [
        {
          "internalType": "bool",
          "name": "",
          "type": "bool"
        }
      ],
      "stateMutability": "view",
      "type": "function"
    },
    {
      "inputs": [],
      "name": "owner",
      "outputs": [
        {
          "internalType": "address",
          "name": "",
          "type": "address"
        }
      ],
      "stateMutability": "view",
      "type": "function"
    },
    {
      "inputs": [
        {
          "internalType": "string",
          "name": "sensorId",
          "type": "string"
        },
        {
          "internalType": "uint256",
          "name": "productId",
          "type": "uint256"
        },
        {
          "internalType": "int256",
          "name": "temperature",
          "type": "int256"
        },
        {
          "internalType": "int256",
          "name": "humidity",
          "type": "int256"
        },
        {
          "internalType": "string",
          "name": "dataHash",
          "type": "string"
        }
      ],
      "name": "publishSensorData",
      "outputs": [],
      "stateMutability": "nonpayable",
      "type": "function"
    },
    {
      "inputs": [],
      "name": "renounceOwnership",
      "outputs": [],
      "stateMutability": "nonpayable",
      "type": "function"
    },
    {
      "inputs": [
        {
          "internalType": "address",
          "name": "node",
          "type": "address"
        },
        {
          "internalType": "bool",
          "name": "isActive",
          "type": "bool"
        }
      ],
      "name": "setOracleNode",
      "outputs": [],
      "stateMutability": "nonpayable",
      "type": "function"
    },
    {
      "inputs": [
        {
          "internalType": "address",
          "name": "newOwner",
          "type": "address"
        }
      ],
      "name": "transferOwnership",
      "outputs": [],
      "stateMutability": "nonpayable",
      "type": "function"
    }
  ],
  "bytecode": "0x608060405234801561001057600080fd5b50604051610adc380380610adc83398101604081905261002f916100be565b806001600160a01b03811661005e57604051631e4fbdf760e01b81526000600482015260240160405180910390fd5b6100678161006e565b50506100ee565b600080546001600160a01b038381166001600160a01b0319831681178455604051919092169283917f8be0079c531659141344cd1fd0a4f28419497f9722a3daafe3b4186f6b6457e09190a35050565b6000602082840312156100d057600080fd5b81516001600160a01b03811681146100e757600080fd5b9392505050565b6109df806100fd6000396000f3fe608060405234801561001057600080fd5b506004361061007d5760003560e01c8063715018a61161005b578063715018a6146100f357806382fe8110146100fb5780638da5cb5b1461010e578063f2fde38b1461012957600080fd5b806307b9aa4e146100825780632849463e146100ab57806354e95bfb146100de575b600080fd5b610095610090366004610589565b61013c565b6040516100a291906105e8565b60405180910390f35b6100ce6100b93660046106b7565b60026020526000908152604090205460ff1681565b60405190151581526020016100a2565b6100f16100ec3660046106d9565b6102fa565b005b6100f1610361565b6100f16101093660046107b8565b610375565b6000546040516001600160a01b0390911681526020016100a2565b6100f16101373660046106b7565b6104ce565b606060016000838152602001908152602001600020805480602002602001604051908101604052809291908181526020016000905b828210156102ef57838290600052602060002090600602016040518060c00160405290816000820180546101a490610839565b80601f01602080910402602001604051908101604052809291908181526020018280546101d090610839565b801561021d5780601f106101f25761010080835404028352916020019161021d565b820191906000526020600020905b81548152906001019060200180831161020057829003601f168201915b505050505081526020016001820154815260200160028201548152602001600382015481526020016004820154815260200160058201805461025e90610839565b80601f016020809104026020016040519081016040528092919081815260200182805461028a90610839565b80156102d75780601f106102ac576101008083540402835291602001916102d7565b820191906000526020600020905b8154815290600101906020018083116102ba57829003601f168201915b50505050508152505081526020019060010190610171565b505050509050919050565b61030261050c565b6001600160a01b038216600081815260026020908152604091829020805460ff191685151590811790915591519182527f293efa319de5016aedb7a6c9e6fb45f2bd022b659598ca8718a3c21d81cfe42b910160405180910390a25050565b61036961050c565b6103736000610539565b565b3360009081526002602052604090205460ff16806103ac5750336103a16000546001600160a01b031690565b6001600160a01b0316145b6103ef5760405162461bcd60e51b815260206004820152600f60248201526e4e6f74206f7261636c65206e6f646560881b60448201526064015b60405180910390fd5b6000848152600160208181526040808420815160c0810183528a81528084018a90529182018890526060820187905242608083015260a082018690528054938401815584529220825160069092020190819061044b90826108c4565b506020820151600182015560408201516002820155606082015160038201556080820151600482015560a0820151600582019061048890826108c4565b505050837fa77400dfc4a012a55fe4a150a4f4919c9b388918aefc1639dee9c7c08e2f8d8f8685856040516104bf93929190610984565b60405180910390a25050505050565b6104d661050c565b6001600160a01b03811661050057604051631e4fbdf760e01b8152600060048201526024016103e6565b61050981610539565b50565b6000546001600160a01b031633146103735760405163118cdaa760e01b81523360048201526024016103e6565b600080546001600160a01b038381166001600160a01b0319831681178455604051919092169283917f8be0079c531659141344cd1fd0a4f28419497f9722a3daafe3b4186f6b6457e09190a35050565b60006020828403121561059b57600080fd5b5035919050565b6000815180845260005b818110156105c8576020818501810151868301820152016105ac565b506000602082860101526020601f19601f83011685010191505092915050565b600060208083018184528085518083526040925060408601915060408160051b87010184880160005b8381101561068d57603f19898403018552815160c08151818652610637828701826105a2565b838b0151878c0152898401518a880152606080850151908801526080808501519088015260a093840151878203948801949094529150610679905081836105a2565b968901969450505090860190600101610611565b509098975050505050505050565b80356001600160a01b03811681146106b257600080fd5b919050565b6000602082840312156106c957600080fd5b6106d28261069b565b9392505050565b600080604083850312156106ec57600080fd5b6106f58361069b565b91506020830135801515811461070a57600080fd5b809150509250929050565b634e487b7160e01b600052604160045260246000fd5b600082601f83011261073c57600080fd5b813567ffffffffffffffff8082111561075757610757610715565b604051601f8301601f19908116603f0116810190828211818310171561077f5761077f610715565b8160405283815286602085880101111561079857600080fd5b836020870160208301376000602085830101528094505050505092915050565b600080600080600060a086880312156107d057600080fd5b853567ffffffffffffffff808211156107e857600080fd5b6107f489838a0161072b565b9650602088013595506040880135945060608801359350608088013591508082111561081f57600080fd5b5061082c8882890161072b565b9150509295509295909350565b600181811c9082168061084d57607f821691505b60208210810361086d57634e487b7160e01b600052602260045260246000fd5b50919050565b601f8211156108bf576000816000526020600020601f850160051c8101602086101561089c5750805b601f850160051c820191505b818110156108bb578281556001016108a8565b5050505b505050565b815167ffffffffffffffff8111156108de576108de610715565b6108f2816108ec8454610839565b84610873565b602080601f831160018114610927576000841561090f5750858301515b600019600386901b1c1916600185901b1785556108bb565b600085815260208120601f198616915b8281101561095657888601518255948401946001909101908401610937565b50858210156109745787850151600019600388901b60f8161c191681555b5050505050600190811b01905550565b60608152600061099760608301866105a2565b6020830194909452506040015291905056fea2646970667358221220db5c4d51a2f28f0ad8ba344df2c7515fff660659818a7ba34e1b1e5f0e08024364736f6c63430008180033",
  "linkReferences": {},
  "deployedLinkReferences": {}
}